{
  "contractName": "LiquidityValueCalculator",
  "abi": [
    {
      "inputs": [
        {
          "internalType": "address",
          "name": "factory_",
          "type": "address"
        }
      ],
      "stateMutability": "nonpayable",
      "type": "constructor"
    },
    {
      "inputs": [],
      "name": "factory",
      "outputs": [
        {
          "internalType": "address",
          "name": "",
          "type": "address"
        }
      ],
      "stateMutability": "view",
      "type": "function"
    },
    {
      "inputs": [
        {
          "internalType": "uint256",
          "name": "liquidity",
          "type": "uint256"
        },
        {
          "internalType": "address",
          "name": "tokenA",
          "type": "address"
        },
        {
          "internalType": "address",
          "name": "tokenB",
          "type": "address"
        }
      ],
      "name": "computeLiquidityShareValue",
      "outputs": [
        {
          "internalType": "uint256",
          "name": "tokenAAmount",
          "type": "uint256"
        },
        {
          "internalType": "uint256",
          "name": "tokenBAmount",
          "type": "uint256"
        }
      ],
      "stateMutability": "nonpayable",
      "type": "function"
    }
  ],
  "bytecode": "0x608060405234801561001057600080fd5b506040516102743803806102748339818101604052602081101561003357600080fd5b8101908080519060200190929190505050806000806101000a81548173ffffffffffffffffffffffffffffffffffffffff021916908373ffffffffffffffffffffffffffffffffffffffff160217905550506101e0806100946000396000f3fe608060405234801561001057600080fd5b5060043610610053576000357c0100000000000000000000000000000000000000000000000000000000900480634ef0c6cc14610058578063c45a0155146100e1575b600080fd5b6100c46004803603606081101561006e57600080fd5b8101908080359060200190929190803573ffffffffffffffffffffffffffffffffffffffff169060200190929190803573ffffffffffffffffffffffffffffffffffffffff169060200190929190505050610115565b604051808381526020018281526020019250505060405180910390f35b6100e9610186565b604051808273ffffffffffffffffffffffffffffffffffffffff16815260200191505060405180910390f35b6000806040517f08c379a00000000000000000000000000000000000000000000000000000000081526004018080602001828103825260048152602001807f544f444f0000000000000000000000000000000000000000000000000000000081525060200191505060405180910390fd5b60008054906101000a900473ffffffffffffffffffffffffffffffffffffffff168156fea26469706673582212207c3313a5e97b582e912e2d0566ce8216c8587ccb0fdbf7a592c2b20dfed8194e64736f6c634300060c0033",
  "immutableReferences": {},
  "source": "pragma solidity ^0.6.6;\r\nimport './interfaces/ILiquidityValueCalculator.sol';\r\nimport '@uniswap/v2-periphery/contracts/libraries/UniswapV2Library.sol';\r\nimport '@uniswap/v2-core/contracts/interfaces/IUniswapV2Pair.sol';\r\n\r\ncontract LiquidityValueCalculator is ILiquidityValueCalculator {\r\n    address public factory;\r\n    constructor(address factory_) public {\r\n        factory = factory_;\r\n    }\r\n\r\n    function pairInfo(address tokenA, address tokenB) internal view returns (uint reserveA, uint reserveB, uint totalSupply) {\r\n        IUniswapV2Pair pair = IUniswapV2Pair(UniswapV2Library.pairFor(factory, tokenA, tokenB));\r\n        totalSupply = pair.totalSupply();\r\n        (uint reserves0, uint reserves1,) = pair.getReserves();\r\n        (reserveA, reserveB) = tokenA == pair.token0() ? (reserves0, reserves1) : (reserves1, reserves0);\r\n    }\r\n\r\n    function computeLiquidityShareValue(uint liquidity, address tokenA, address tokenB) external override returns (uint tokenAAmount, uint tokenBAmount) {\r\n        revert('TODO');\r\n    }\r\n}",
  "sourcePath": "D:\\KERJAAN\\JAGO-SMARTCONTRACT\\contracts\\LiquidityValueCalculator.sol",
  "compiler": {
    "name": "solc",
    "version": "0.6.12+commit.27d51765.Emscripten.clang"
  },
  "schemaVersion": "3.4.3",
  "updatedAt": "2022-06-08T14:00:53.478Z",
  "devdoc": {
    "kind": "dev",
    "methods": {},
    "version": 1
  },
  "userdoc": {
    "kind": "user",
    "methods": {},
    "version": 1
  }
}