{
  "contractName": "SimpleLogs",
  "abi": [
    {
      "inputs": [],
      "stateMutability": "nonpayable",
      "type": "constructor"
    },
    {
      "inputs": [
        {
          "internalType": "address",
          "name": "",
          "type": "address"
        },
        {
          "internalType": "uint256",
          "name": "",
          "type": "uint256"
        }
      ],
      "name": "IDLog",
      "outputs": [
        {
          "internalType": "uint256",
          "name": "",
          "type": "uint256"
        }
      ],
      "stateMutability": "view",
      "type": "function"
    },
    {
      "inputs": [
        {
          "internalType": "uint256",
          "name": "",
          "type": "uint256"
        }
      ],
      "name": "IPFSLog",
      "outputs": [
        {
          "internalType": "string",
          "name": "",
          "type": "string"
        }
      ],
      "stateMutability": "view",
      "type": "function"
    },
    {
      "inputs": [],
      "name": "logCounter",
      "outputs": [
        {
          "internalType": "uint256",
          "name": "",
          "type": "uint256"
        }
      ],
      "stateMutability": "view",
      "type": "function"
    },
    {
      "inputs": [
        {
          "internalType": "address",
          "name": "_address",
          "type": "address"
        },
        {
          "internalType": "string",
          "name": "_ipfsURL",
          "type": "string"
        }
      ],
      "name": "saveLogs",
      "outputs": [],
      "stateMutability": "nonpayable",
      "type": "function"
    },
    {
      "inputs": [
        {
          "internalType": "uint256",
          "name": "_index",
          "type": "uint256"
        }
      ],
      "name": "getDataById",
      "outputs": [
        {
          "internalType": "string",
          "name": "",
          "type": "string"
        }
      ],
      "stateMutability": "view",
      "type": "function"
    },
    {
      "inputs": [
        {
          "internalType": "address",
          "name": "_address",
          "type": "address"
        }
      ],
      "name": "getDataByOwner",
      "outputs": [
        {
          "internalType": "uint256[]",
          "name": "",
          "type": "uint256[]"
        }
      ],
      "stateMutability": "view",
      "type": "function"
    },
    {
      "inputs": [
        {
          "internalType": "address",
          "name": "addr",
          "type": "address"
        }
      ],
      "name": "getBalance",
      "outputs": [
        {
          "internalType": "uint256",
          "name": "",
          "type": "uint256"
        }
      ],
      "stateMutability": "view",
      "type": "function"
    }
  ],
  "bytecode": "0x608060405234801561001057600080fd5b506064600081905550612710600160003273ffffffffffffffffffffffffffffffffffffffff1673ffffffffffffffffffffffffffffffffffffffff16815260200190815260200160002081905550610d038061006e6000396000f3fe608060405234801561001057600080fd5b506004361061009a576000357c010000000000000000000000000000000000000000000000000000000090048063a68eadfc11610078578063a68eadfc1461011b578063ac42100f1461014b578063f2722a9f14610169578063f8b2cb4f146101995761009a565b806324c84fe21461009f57806364639d22146100cf57806366b969d9146100ff575b600080fd5b6100b960048036038101906100b49190610516565b6101c9565b6040516100c691906105dc565b60405180910390f35b6100e960048036038101906100e4919061065c565b610269565b6040516100f691906106ab565b60405180910390f35b610119600480360381019061011491906107fb565b61029a565b005b61013560048036038101906101309190610857565b610341565b6040516101429190610942565b60405180910390f35b6101536103d8565b60405161016091906106ab565b60405180910390f35b610183600480360381019061017e9190610516565b6103de565b60405161019091906105dc565b60405180910390f35b6101b360048036038101906101ae9190610857565b610483565b6040516101c091906106ab565b60405180910390f35b600360205280600052604060002060009150905080546101e890610993565b80601f016020809104026020016040519081016040528092919081815260200182805461021490610993565b80156102615780601f1061023657610100808354040283529160200191610261565b820191906000526020600020905b81548152906001019060200180831161024457829003601f168201915b505050505081565b6002602052816000526040600020818154811061028557600080fd5b90600052602060002001600091509150505481565b600080549050600260008473ffffffffffffffffffffffffffffffffffffffff1673ffffffffffffffffffffffffffffffffffffffff168152602001908152602001600020819080600181540180825580915050600190039060005260206000200160009091909190915055816003600083815260200190815260200160002090816103269190610b76565b5060016000546103369190610c77565b600081905550505050565b6060600260008373ffffffffffffffffffffffffffffffffffffffff1673ffffffffffffffffffffffffffffffffffffffff1681526020019081526020016000208054806020026020016040519081016040528092919081815260200182805480156103cc57602002820191906000526020600020905b8154815260200190600101908083116103b8575b50505050509050919050565b60005481565b60606003600083815260200190815260200160002080546103fe90610993565b80601f016020809104026020016040519081016040528092919081815260200182805461042a90610993565b80156104775780601f1061044c57610100808354040283529160200191610477565b820191906000526020600020905b81548152906001019060200180831161045a57829003601f168201915b50505050509050919050565b6000600160008373ffffffffffffffffffffffffffffffffffffffff1673ffffffffffffffffffffffffffffffffffffffff168152602001908152602001600020549050919050565b6000604051905090565b600080fd5b600080fd5b6000819050919050565b6104f3816104e0565b81146104fe57600080fd5b50565b600081359050610510816104ea565b92915050565b60006020828403121561052c5761052b6104d6565b5b600061053a84828501610501565b91505092915050565b600081519050919050565b600082825260208201905092915050565b60005b8381101561057d578082015181840152602081019050610562565b8381111561058c576000848401525b50505050565b6000601f19601f8301169050919050565b60006105ae82610543565b6105b8818561054e565b93506105c881856020860161055f565b6105d181610592565b840191505092915050565b600060208201905081810360008301526105f681846105a3565b905092915050565b600073ffffffffffffffffffffffffffffffffffffffff82169050919050565b6000610629826105fe565b9050919050565b6106398161061e565b811461064457600080fd5b50565b60008135905061065681610630565b92915050565b60008060408385031215610673576106726104d6565b5b600061068185828601610647565b925050602061069285828601610501565b9150509250929050565b6106a5816104e0565b82525050565b60006020820190506106c0600083018461069c565b92915050565b600080fd5b600080fd5b7f4e487b7100000000000000000000000000000000000000000000000000000000600052604160045260246000fd5b61070882610592565b810181811067ffffffffffffffff82111715610727576107266106d0565b5b80604052505050565b600061073a6104cc565b905061074682826106ff565b919050565b600067ffffffffffffffff821115610766576107656106d0565b5b61076f82610592565b9050602081019050919050565b82818337600083830152505050565b600061079e6107998461074b565b610730565b9050828152602081018484840111156107ba576107b96106cb565b5b6107c584828561077c565b509392505050565b600082601f8301126107e2576107e16106c6565b5b81356107f284826020860161078b565b91505092915050565b60008060408385031215610812576108116104d6565b5b600061082085828601610647565b925050602083013567ffffffffffffffff811115610841576108406104db565b5b61084d858286016107cd565b9150509250929050565b60006020828403121561086d5761086c6104d6565b5b600061087b84828501610647565b91505092915050565b600081519050919050565b600082825260208201905092915050565b6000819050602082019050919050565b6108b9816104e0565b82525050565b60006108cb83836108b0565b60208301905092915050565b6000602082019050919050565b60006108ef82610884565b6108f9818561088f565b9350610904836108a0565b8060005b8381101561093557815161091c88826108bf565b9750610927836108d7565b925050600181019050610908565b5085935050505092915050565b6000602082019050818103600083015261095c81846108e4565b905092915050565b7f4e487b7100000000000000000000000000000000000000000000000000000000600052602260045260246000fd5b600060028204905060018216806109ab57607f821691505b6020821081036109be576109bd610964565b5b50919050565b60008190508160005260206000209050919050565b60006020601f8301049050919050565b60008160020a8302905092915050565b600060088302610a297fffffffffffffffffffffffffffffffffffffffffffffffffffffffffffffffff826109e9565b610a3386836109e9565b95508019841693508086168417925050509392505050565b6000819050919050565b6000610a70610a6b610a66846104e0565b610a4b565b6104e0565b9050919050565b6000819050919050565b610a8a83610a55565b610a9e610a9682610a77565b8484546109f9565b825550505050565b600090565b610ab3610aa6565b610abe818484610a81565b505050565b5b81811015610ae257610ad7600082610aab565b600181019050610ac4565b5050565b601f821115610b2757610af8816109c4565b610b01846109d9565b81016020851015610b10578190505b610b24610b1c856109d9565b830182610ac3565b50505b505050565b60008160020a8304905092915050565b6000610b4d60001984600802610b2c565b1980831691505092915050565b6000610b668383610b3c565b9150826002028217905092915050565b610b7f82610543565b67ffffffffffffffff811115610b9857610b976106d0565b5b610ba28254610993565b610bad828285610ae6565b600060209050601f831160018114610be05760008415610bce578287015190505b610bd88582610b5a565b865550610c40565b601f198416610bee866109c4565b60005b82811015610c1657848901518255600182019150602085019450602081019050610bf1565b86831015610c335784890151610c2f601f891682610b3c565b8355505b6001600288020188555050505b505050505050565b7f4e487b7100000000000000000000000000000000000000000000000000000000600052601160045260246000fd5b6000610c82826104e0565b9150610c8d836104e0565b9250827fffffffffffffffffffffffffffffffffffffffffffffffffffffffffffffffff03821115610cc257610cc1610c48565b5b82820190509291505056fea2646970667358221220a675d07c1110587831bf8a1d1f01986fcd94025e540007412b85db93b522cf2c64736f6c634300080f0033",
  "immutableReferences": {},
  "source": "// SPDX-License-Identifier: MIT\r\npragma solidity >=0.4.22 <0.9.0;\r\n\r\ncontract SimpleLogs {\r\n  uint256 public logCounter;\r\n  mapping (address => uint) balances;\r\n\r\n  mapping(address => uint[]) public IDLog;\r\n  mapping(uint256 => string) public IPFSLog;\r\n\r\n  constructor()public{\r\n    logCounter = 100;\r\n    balances[tx.origin] = 10000;\r\n  }\r\n\r\n  function saveLogs(address _address, string memory _ipfsURL) public {\r\n      uint256 newId = logCounter;\r\n      IDLog[_address].push(newId);\r\n      IPFSLog[newId] = _ipfsURL;\r\n\r\n      logCounter = logCounter + 1;\r\n  }\r\n\r\n  function getDataById(uint256 _index) public view returns(string memory){\r\n    return IPFSLog[_index];\r\n  }\r\n\r\n  function getDataByOwner(address _address) public view returns(uint[] memory){\r\n    return IDLog[_address];\r\n  }\r\n\r\n  function getBalance(address addr) public view returns(uint) {\r\n    return balances[addr];\r\n  }\r\n}\r\n",
  "sourcePath": "D:\\KERJAAN\\JAGO-SMARTCONTRACT\\contracts\\SimpleLogs.sol",
  "compiler": {
    "name": "solc",
    "version": "0.8.15+commit.e14f2714.Emscripten.clang"
  },
  "schemaVersion": "3.4.3",
  "updatedAt": "2022-06-18T02:46:57.477Z",
  "devdoc": {
    "kind": "dev",
    "methods": {},
    "version": 1
  },
  "userdoc": {
    "kind": "user",
    "methods": {},
    "version": 1
  }
}